:03000000020C30BF
:0C0C3000787FE4F6D8FD758120020BD51A
:100C1300E4FFFEE4FDFC0DBD00010CBC01F8BDF4D6
:0C0C2300F50FBF00010EEF640A4E70E7F1
:010C2F0022A2
:0D0983007C007D0A120800AA04AB05AF033A
:10099000EFB40A004003020A299009A0F82828733E
:1009A0000209BE0209CD0209D10209DD0209EC02E9
:1009B00009F6020A00020A06020A15020A1DD2B04E
:1009C000D2C4D291D2B7D2B6D2B1C2B322C2B08011
:1009D00037D2B0D2C4C291D2B7D2B6800AD2B0D286
:1009E000C4D291D2B7C2B6C2B1D2B322C2B0D2C4BD
:1009F000D291C2B7802FD2B0C2C4D291D2B78025D3
:100A0000D2B0C2C48013D2B0D2C4D291C2B7C2B6DF
:100A1000C2B1C2B322D2B0D2C4D2918012D2B0D26B
:100A2000C4D291D2B7C2B6800AD2B0C2C4C291D2E7
:080A3000B7D2B6D2B1D2B32255
:100A3800D295D294D293D292D3E518940FE5179415
:100A4800274006750D00750E05E51845177005F564
:100A58000D750E01E50D7071E50E24FE601714602A
:100A68002514603C1460552404705EAE17AF18124C
:100A78000983C29222AE17AF187C007D0A120800C3
:100A8800120983C29322AE17AF187C007D64120846
:100A9800007C007D0A120800AA04AB05C2948018E5
:100AA800AE17AF187C037DE81208007C007D0A129F
:100AB8000800AA04AB05C295AF03800AC295C29488
:090AC800C293C2927F1112099041
:010AD1002202
:100BD500D2B2C288D2A8D2AF758901758CFAE4F574
:100BE5008AD2A9D28CD2AFF512F511F510F50FF511
:100BF500087B01FAF50D750E01C2900BBB00010AC9
:0E0C0500120C13BA27F3BB10F0E4FAFB80EBDD
:03000B00020AD214
:100AD200C0E0C0F0C083C082C0D075D000C000C0EA
:100AE20001C002C003C004C005C006C007758CFA6D
:100AF200758A00120A38050EE50E7002050D6405AE
:100B0200450D7005F50D750E01D200E5122401F5B3
:100B120012E43511F511E43510F510E4350FF50F37
:100B2200E47FDC7E05FDFCAB12AA11A910A80FD34D
:100B320012097240157508007512007511007510C2
:100B420000750F00751700751800D007D006D00584
:100B5200D004D003D002D001D000D0D0D082D08334
:050B6200D0F0D0E032EC
:03000300020B6786
:100B6700C0E0C0F0C083C082C0D075D000C000C054
:100B770001C002C003C004C005C006C00720B233CD
:100B8700E5086401701EAB12AA11A910A80F7F70A7
:100B97007E17FDFC1208E0E47B0AFAF9F812085503
:100BA7008E178F18750801751200751100751000E2
:100BB700750F00D007D006D005D004D003D002D0DF
:0E0BC70001D000D0D0D082D083D0F0D0E03268
:10080000BC000BBE0029EF8DF084FFADF022E4CCDC
:10081000F875F008EF2FFFEE33FEEC33FCEE9DECA5
:10082000984005FCEE9DFE0FD5F0E9E4CEFD22EDEB
:10083000F8F5F0EE8420D21CFEADF075F008EF2F35
:10084000FFED33FD4007985006D5F0F222C398FD26
:050850000FD5F0EA22C3
:10085500E88FF0A4CC8BF0A42CFCE98EF0A42CFC42
:100865008AF0EDA42CFCEA8EF0A4CDA8F08BF0A4C0
:100875002DCC3825F0FDE98FF0A42CCD35F0FCEB1F
:100885008EF0A4FEA9F0EB8FF0A4CFC5F02ECD39E4
:0F089500FEE43CFCEAA42DCE35F0FDE43CFC2251
:1008A40075F008758200EF2FFFEE33FECD33CDCC0B
:1008B40033CCC58233C5829BED9AEC99E58298408E
:1008C4000CF582EE9BFEED9AFDEC99FC0FD5F0D66B
:1008D400E4CEFBE4CDFAE4CCF9A88222B800C1B995
:1008E4000059BA002DEC8BF084CFCECDFCE5F0CBD3
:1008F400F97818EF2FFFEE33FEED33FDEC33FCEB0C
:1009040033FB10D703994004EB99FB0FD8E5E4F9C6
:10091400FA227818EF2FFFEE33FEED33FDEC33FCB3
:10092400C933C910D7059BE99A4007EC9BFCE99AA7
:10093400F90FD8E0E4C9FAE4CCFB2275F010EF2FEC
:10094400FFEE33FEED33FDCC33CCC833C810D707EC
:100954009BEC9AE899400AED9BFDEC9AFCE899F827
:0E0964000FD5F0DAE4CDFBE4CCFAE4C8F922BA
:10097200EB9FF5F0EA9E42F0E99D42F0E89C45F0DB
:010982002252
:00000001FF
